{
  "contractName": "Deposit",
  "abi": [
    {
      "constant": true,
      "inputs": [],
      "name": "initiator",
      "outputs": [
        {
          "name": "",
          "type": "address"
        }
      ],
      "payable": false,
      "stateMutability": "view",
      "type": "function"
    },
    {
      "constant": true,
      "inputs": [],
      "name": "SgxAddress",
      "outputs": [
        {
          "name": "",
          "type": "address"
        }
      ],
      "payable": false,
      "stateMutability": "view",
      "type": "function"
    },
    {
      "constant": true,
      "inputs": [],
      "name": "counterpart",
      "outputs": [
        {
          "name": "",
          "type": "address"
        }
      ],
      "payable": false,
      "stateMutability": "view",
      "type": "function"
    },
    {
      "constant": true,
      "inputs": [],
      "name": "state",
      "outputs": [
        {
          "name": "finalBalanceSet",
          "type": "bool"
        },
        {
          "name": "stage",
          "type": "uint8"
        }
      ],
      "payable": false,
      "stateMutability": "view",
      "type": "function"
    },
    {
      "constant": true,
      "inputs": [],
      "name": "factory",
      "outputs": [
        {
          "name": "",
          "type": "address"
        }
      ],
      "payable": false,
      "stateMutability": "view",
      "type": "function"
    },
    {
      "constant": true,
      "inputs": [],
      "name": "isKeySet",
      "outputs": [
        {
          "name": "",
          "type": "bool"
        }
      ],
      "payable": false,
      "stateMutability": "view",
      "type": "function"
    },
    {
      "inputs": [
        {
          "name": "creator",
          "type": "address"
        }
      ],
      "payable": true,
      "stateMutability": "payable",
      "type": "constructor"
    },
    {
      "constant": false,
      "inputs": [],
      "name": "addDeposit",
      "outputs": [],
      "payable": true,
      "stateMutability": "payable",
      "type": "function"
    },
    {
      "constant": true,
      "inputs": [
        {
          "name": "party",
          "type": "address"
        }
      ],
      "name": "viewCurrentDeposit",
      "outputs": [
        {
          "name": "",
          "type": "uint256"
        }
      ],
      "payable": false,
      "stateMutability": "view",
      "type": "function"
    },
    {
      "constant": true,
      "inputs": [],
      "name": "viewCurrentDeposit",
      "outputs": [
        {
          "name": "",
          "type": "uint256[]"
        }
      ],
      "payable": false,
      "stateMutability": "view",
      "type": "function"
    },
    {
      "constant": false,
      "inputs": [
        {
          "name": "adr",
          "type": "address"
        }
      ],
      "name": "setCounterpart",
      "outputs": [],
      "payable": false,
      "stateMutability": "nonpayable",
      "type": "function"
    },
    {
      "constant": false,
      "inputs": [
        {
          "name": "_sgx",
          "type": "address"
        }
      ],
      "name": "setPublicKey",
      "outputs": [],
      "payable": false,
      "stateMutability": "nonpayable",
      "type": "function"
    },
    {
      "constant": false,
      "inputs": [],
      "name": "cancelDepositContract",
      "outputs": [],
      "payable": false,
      "stateMutability": "nonpayable",
      "type": "function"
    },
    {
      "constant": false,
      "inputs": [],
      "name": "drawMyBalance",
      "outputs": [],
      "payable": true,
      "stateMutability": "payable",
      "type": "function"
    },
    {
      "constant": false,
      "inputs": [
        {
          "name": "_sgx",
          "type": "address"
        }
      ],
      "name": "lockPublicSharedKey",
      "outputs": [
        {
          "name": "",
          "type": "bool"
        }
      ],
      "payable": false,
      "stateMutability": "nonpayable",
      "type": "function"
    },
    {
      "constant": false,
      "inputs": [
        {
          "name": "Totals",
          "type": "uint256[2]"
        },
        {
          "name": "TotalsBytes",
          "type": "bytes32"
        },
        {
          "name": "v",
          "type": "uint8"
        },
        {
          "name": "r",
          "type": "bytes32"
        },
        {
          "name": "s",
          "type": "bytes32"
        }
      ],
      "name": "setFinalState",
      "outputs": [],
      "payable": false,
      "stateMutability": "nonpayable",
      "type": "function"
    }
  ],
  "bytecode": "0x60806040526000600760146101000a81548160ff0219169083151502179055506040516020806200307e833981018060405281019080805190602001909291905050506200004c620004c4565b600033600460006101000a81548173ffffffffffffffffffffffffffffffffffffffff021916908373ffffffffffffffffffffffffffffffffffffffff16021790555082600560006101000a81548173ffffffffffffffffffffffffffffffffffffffff021916908373ffffffffffffffffffffffffffffffffffffffff160217905550604080519081016040528060001515815260200160006006811115620000f257fe5b8152509150816000808201518160030160006101000a81548160ff02191690831515021790555060208201518160030160016101000a81548160ff021916908360068111156200013e57fe5b021790555090505060009050600034111562000158573490505b80600080016000600560009054906101000a900473ffffffffffffffffffffffffffffffffffffffff1673ffffffffffffffffffffffffffffffffffffffff1673ffffffffffffffffffffffffffffffffffffffff168152602001908152602001600020819055508060006001016000600560009054906101000a900473ffffffffffffffffffffffffffffffffffffffff1673ffffffffffffffffffffffffffffffffffffffff1673ffffffffffffffffffffffffffffffffffffffff168152602001908152602001600020819055506000806002016000600560009054906101000a900473ffffffffffffffffffffffffffffffffffffffff1673ffffffffffffffffffffffffffffffffffffffff1673ffffffffffffffffffffffffffffffffffffffff16815260200190815260200160002081905550620002ab620002b4640100000000026401000000009004565b505050620004ec565b6000600680811115620002c357fe5b600060030160019054906101000a900460ff166006811115620002e257fe5b1415151562000359576040517f08c379a000000000000000000000000000000000000000000000000000000000815260040180806020018281038252600c8152602001807f417373657274206661696c73000000000000000000000000000000000000000081525060200191505060405180910390fd5b6006808111156200036657fe5b600060030160019054906101000a900460ff1660068111156200038557fe5b141515156200039057fe5b600060030160019054906101000a900460ff1690506001816006811115620003b457fe5b016006811115620003c157fe5b600060030160016101000a81548160ff02191690836006811115620003e257fe5b0217905550600680811115620003f457fe5b600060030160019054906101000a900460ff1660068111156200041357fe5b141515156200048a576040517f08c379a000000000000000000000000000000000000000000000000000000000815260040180806020018281038252600c8152602001807f417373657274206661696c73000000000000000000000000000000000000000081525060200191505060405180910390fd5b6006808111156200049757fe5b600060030160019054906101000a900460ff166006811115620004b657fe5b11151515620004c157fe5b50565b604080519081016040528060001515815260200160006006811115620004e657fe5b81525090565b612b8280620004fc6000396000f3006080604052600436106100db576000357c0100000000000000000000000000000000000000000000000000000000900463ffffffff168063097eb759146100e0578063185417ef1461012357806332589f2e146101ac5780634a58db19146102035780635c39fcc11461020d5780636f090a0f1461026457806373c0e36b146102d057806377061e4d14610327578063797594b01461036a578063917d22f1146103c1578063bd553e9b146103d8578063c19d93fb14610433578063c45a015514610477578063dac8a176146104ce578063f99eb9bf146104d8575b600080fd5b3480156100ec57600080fd5b50610121600480360381019080803573ffffffffffffffffffffffffffffffffffffffff169060200190929190505050610507565b005b34801561012f57600080fd5b506101aa60048036038101908080604001906002806020026040519081016040528092919082600260200280828437820191505050505091929192908035600019169060200190929190803560ff1690602001909291908035600019169060200190929190803560001916906020019092919050505061075d565b005b3480156101b857600080fd5b506101ed600480360381019080803573ffffffffffffffffffffffffffffffffffffffff169060200190929190505050610dc7565b6040518082815260200191505060405180910390f35b61020b610f56565b005b34801561021957600080fd5b50610222611265565b604051808273ffffffffffffffffffffffffffffffffffffffff1673ffffffffffffffffffffffffffffffffffffffff16815260200191505060405180910390f35b34801561027057600080fd5b5061027961128b565b6040518080602001828103825283818151815260200191508051906020019060200280838360005b838110156102bc5780820151818401526020810190506102a1565b505050509050019250505060405180910390f35b3480156102dc57600080fd5b506102e561150f565b604051808273ffffffffffffffffffffffffffffffffffffffff1673ffffffffffffffffffffffffffffffffffffffff16815260200191505060405180910390f35b34801561033357600080fd5b50610368600480360381019080803573ffffffffffffffffffffffffffffffffffffffff169060200190929190505050611535565b005b34801561037657600080fd5b5061037f61198c565b604051808273ffffffffffffffffffffffffffffffffffffffff1673ffffffffffffffffffffffffffffffffffffffff16815260200191505060405180910390f35b3480156103cd57600080fd5b506103d66119b2565b005b3480156103e457600080fd5b50610419600480360381019080803573ffffffffffffffffffffffffffffffffffffffff169060200190929190505050611c92565b604051808215151515815260200191505060405180910390f35b34801561043f57600080fd5b50610448611fc6565b604051808315151515815260200182600681111561046257fe5b60ff1681526020019250505060405180910390f35b34801561048357600080fd5b5061048c611ff2565b604051808273ffffffffffffffffffffffffffffffffffffffff1673ffffffffffffffffffffffffffffffffffffffff16815260200191505060405180910390f35b6104d6612018565b005b3480156104e457600080fd5b506104ed6125c7565b604051808215151515815260200191505060405180910390f35b6001600060018081111561051757fe5b82600181111561052357fe5b1461055057600660009054906101000a900473ffffffffffffffffffffffffffffffffffffffff16610574565b600560009054906101000a900473ffffffffffffffffffffffffffffffffffffffff165b90508073ffffffffffffffffffffffffffffffffffffffff163373ffffffffffffffffffffffffffffffffffffffff1614151561063f576040517f08c379a00000000000000000000000000000000000000000000000000000000081526004018080602001828103825260248152602001807f596f75206c61636b207065726d697373696f6e7320666f72207468697320616381526020017f74696f6e0000000000000000000000000000000000000000000000000000000081525060400191505060405180910390fd5b600261064a816125da565b610665600060030160019054906101000a900460ff1661260e565b90151561070d576040517f08c379a00000000000000000000000000000000000000000000000000000000081526004018080602001828103825283818151815260200191508051906020019080838360005b838110156106d25780820151818401526020810190506106b7565b50505050905090810190601f1680156106ff5780820380516001836020036101000a031916815260200191505b509250505060405180910390fd5b5083600760006101000a81548173ffffffffffffffffffffffffffffffffffffffff021916908373ffffffffffffffffffffffffffffffffffffffff1602179055506107576128f8565b50505050565b600660009054906101000a900473ffffffffffffffffffffffffffffffffffffffff1673ffffffffffffffffffffffffffffffffffffffff163373ffffffffffffffffffffffffffffffffffffffff1614806108065750600560009054906101000a900473ffffffffffffffffffffffffffffffffffffffff1673ffffffffffffffffffffffffffffffffffffffff163373ffffffffffffffffffffffffffffffffffffffff16145b15156108a0576040517f08c379a000000000000000000000000000000000000000000000000000000000815260040180806020018281038252603b8152602001807f4f6e6c792074686973206368616e6e656c27732070617274696573206861766581526020017f207065726d697373696f6e20666f72207468697320616374696f6e000000000081525060400191505060405180910390fd5b60046108ab816125da565b6108c6600060030160019054906101000a900460ff1661260e565b90151561096e576040517f08c379a00000000000000000000000000000000000000000000000000000000081526004018080602001828103825283818151815260200191508051906020019080838360005b83811015610933578082015181840152602081019050610918565b50505050905090810190601f1680156109605780820380516001836020036101000a031916815260200191505b509250505060405180910390fd5b508585858585606060008560001916876040518082600260200280838360005b838110156109a957808201518184015260208101905061098e565b50505050905001915050604051809103902060001916141515610a5a576040517f08c379a00000000000000000000000000000000000000000000000000000000081526004018080602001828103825260288152602001807f53686133206f6620746f74616c7320646f6573206e6f74206d6174636820676981526020017f76656e205368613300000000000000000000000000000000000000000000000081525060400191505060405180910390fd5b6040805190810160405280601c81526020017f19457468657265756d205369676e6564204d6573736167653a0a333200000000815250915081866040516020018083805190602001908083835b602083101515610acc5780518252602082019150602081019050602083039250610aa7565b6001836020036101000a0380198251168184511680821785525050505050509050018260001916600019168152602001925050506040516020818303038152906040526040518082805190602001908083835b602083101515610b445780518252602082019150602081019050602083039250610b1f565b6001836020036101000a03801982511681845116808217855250505050505090500191505060405180910390209050600760009054906101000a900473ffffffffffffffffffffffffffffffffffffffff1673ffffffffffffffffffffffffffffffffffffffff16600182878787604051600081526020016040526040518085600019166000191681526020018460ff1660ff1681526020018360001916600019168152602001826000191660001916815260200194505050505060206040516020810390808403906000865af1158015610c23573d6000803e3d6000fd5b5050506020604051035173ffffffffffffffffffffffffffffffffffffffff16141515610cb8576040517f08c379a00000000000000000000000000000000000000000000000000000000081526004018080602001828103825260178152602001807f566572696679207369676e6174757265206661696c656400000000000000000081525060200191505060405180910390fd5b8c6000600281101515610cc757fe5b602002015160006002016000600560009054906101000a900473ffffffffffffffffffffffffffffffffffffffff1673ffffffffffffffffffffffffffffffffffffffff1673ffffffffffffffffffffffffffffffffffffffff168152602001908152602001600020819055508c6001600281101515610d4357fe5b602002015160006002016000600660009054906101000a900473ffffffffffffffffffffffffffffffffffffffff1673ffffffffffffffffffffffffffffffffffffffff1673ffffffffffffffffffffffffffffffffffffffff16815260200190815260200160002081905550610db86128f8565b50505050505050505050505050565b6000600660009054906101000a900473ffffffffffffffffffffffffffffffffffffffff1673ffffffffffffffffffffffffffffffffffffffff163373ffffffffffffffffffffffffffffffffffffffff161480610e725750600560009054906101000a900473ffffffffffffffffffffffffffffffffffffffff1673ffffffffffffffffffffffffffffffffffffffff163373ffffffffffffffffffffffffffffffffffffffff16145b1515610f0c576040517f08c379a000000000000000000000000000000000000000000000000000000000815260040180806020018281038252603b8152602001807f4f6e6c792074686973206368616e6e656c27732070617274696573206861766581526020017f207065726d697373696f6e20666f72207468697320616374696f6e000000000081525060400191505060405180910390fd5b600060010160008373ffffffffffffffffffffffffffffffffffffffff1673ffffffffffffffffffffffffffffffffffffffff168152602001908152602001600020549050919050565b600660009054906101000a900473ffffffffffffffffffffffffffffffffffffffff1673ffffffffffffffffffffffffffffffffffffffff163373ffffffffffffffffffffffffffffffffffffffff161480610fff5750600560009054906101000a900473ffffffffffffffffffffffffffffffffffffffff1673ffffffffffffffffffffffffffffffffffffffff163373ffffffffffffffffffffffffffffffffffffffff16145b1515611099576040517f08c379a000000000000000000000000000000000000000000000000000000000815260040180806020018281038252603b8152602001807f4f6e6c792074686973206368616e6e656c27732070617274696573206861766581526020017f207065726d697373696f6e20666f72207468697320616374696f6e000000000081525060400191505060405180910390fd5b600034111515611111576040517f08c379a00000000000000000000000000000000000000000000000000000000081526004018080602001828103825260178152602001807f506179206d6f7265207468616e203020706c656173652e00000000000000000081525060200191505060405180910390fd5b600560009054906101000a900473ffffffffffffffffffffffffffffffffffffffff1673ffffffffffffffffffffffffffffffffffffffff163373ffffffffffffffffffffffffffffffffffffffff1614156111de573460006001016000600560009054906101000a900473ffffffffffffffffffffffffffffffffffffffff1673ffffffffffffffffffffffffffffffffffffffff1673ffffffffffffffffffffffffffffffffffffffff16815260200190815260200160002060008282540192505081905550611263565b6111ea60026004612af9565b15611262573460006001016000600660009054906101000a900473ffffffffffffffffffffffffffffffffffffffff1673ffffffffffffffffffffffffffffffffffffffff1673ffffffffffffffffffffffffffffffffffffffff168152602001908152602001600020600082825401925050819055505b5b565b600560009054906101000a900473ffffffffffffffffffffffffffffffffffffffff1681565b606080600660009054906101000a900473ffffffffffffffffffffffffffffffffffffffff1673ffffffffffffffffffffffffffffffffffffffff163373ffffffffffffffffffffffffffffffffffffffff1614806113375750600560009054906101000a900473ffffffffffffffffffffffffffffffffffffffff1673ffffffffffffffffffffffffffffffffffffffff163373ffffffffffffffffffffffffffffffffffffffff16145b15156113d1576040517f08c379a000000000000000000000000000000000000000000000000000000000815260040180806020018281038252603b8152602001807f4f6e6c792074686973206368616e6e656c27732070617274696573206861766581526020017f207065726d697373696f6e20666f72207468697320616374696f6e000000000081525060400191505060405180910390fd5b60026040519080825280602002602001820160405280156114015781602001602082028038833980820191505090505b50905060006001016000600560009054906101000a900473ffffffffffffffffffffffffffffffffffffffff1673ffffffffffffffffffffffffffffffffffffffff1673ffffffffffffffffffffffffffffffffffffffff1681526020019081526020016000205481600081518110151561147857fe5b906020019060200201818152505060006001016000600660009054906101000a900473ffffffffffffffffffffffffffffffffffffffff1673ffffffffffffffffffffffffffffffffffffffff1673ffffffffffffffffffffffffffffffffffffffff168152602001908152602001600020548160018151811015156114fa57fe5b90602001906020020181815250508091505090565b600760009054906101000a900473ffffffffffffffffffffffffffffffffffffffff1681565b6001600060018081111561154557fe5b82600181111561155157fe5b1461157e57600660009054906101000a900473ffffffffffffffffffffffffffffffffffffffff166115a2565b600560009054906101000a900473ffffffffffffffffffffffffffffffffffffffff165b90508073ffffffffffffffffffffffffffffffffffffffff163373ffffffffffffffffffffffffffffffffffffffff1614151561166d576040517f08c379a00000000000000000000000000000000000000000000000000000000081526004018080602001828103825260248152602001807f596f75206c61636b207065726d697373696f6e7320666f72207468697320616381526020017f74696f6e0000000000000000000000000000000000000000000000000000000081525060400191505060405180910390fd5b6001611678816125da565b611693600060030160019054906101000a900460ff1661260e565b90151561173b576040517f08c379a00000000000000000000000000000000000000000000000000000000081526004018080602001828103825283818151815260200191508051906020019080838360005b838110156117005780820151818401526020810190506116e5565b50505050905090810190601f16801561172d5780820380516001836020036101000a031916815260200191505b509250505060405180910390fd5b50600560009054906101000a900473ffffffffffffffffffffffffffffffffffffffff1673ffffffffffffffffffffffffffffffffffffffff168473ffffffffffffffffffffffffffffffffffffffff1614151515611802576040517f08c379a000000000000000000000000000000000000000000000000000000000815260040180806020018281038252601e8152602001807f506172747920697320616c72656164792074686520696e69746961746f72000081525060200191505060405180910390fd5b83600660006101000a81548173ffffffffffffffffffffffffffffffffffffffff021916908373ffffffffffffffffffffffffffffffffffffffff1602179055506000806000016000600660009054906101000a900473ffffffffffffffffffffffffffffffffffffffff1673ffffffffffffffffffffffffffffffffffffffff1673ffffffffffffffffffffffffffffffffffffffff168152602001908152602001600020819055506000806001016000600660009054906101000a900473ffffffffffffffffffffffffffffffffffffffff1673ffffffffffffffffffffffffffffffffffffffff1673ffffffffffffffffffffffffffffffffffffffff168152602001908152602001600020819055506000806002016000600660009054906101000a900473ffffffffffffffffffffffffffffffffffffffff1673ffffffffffffffffffffffffffffffffffffffff1673ffffffffffffffffffffffffffffffffffffffff168152602001908152602001600020819055506119866128f8565b50505050565b600660009054906101000a900473ffffffffffffffffffffffffffffffffffffffff1681565b600160006001808111156119c257fe5b8260018111156119ce57fe5b146119fb57600660009054906101000a900473ffffffffffffffffffffffffffffffffffffffff16611a1f565b600560009054906101000a900473ffffffffffffffffffffffffffffffffffffffff165b90508073ffffffffffffffffffffffffffffffffffffffff163373ffffffffffffffffffffffffffffffffffffffff16141515611aea576040517f08c379a00000000000000000000000000000000000000000000000000000000081526004018080602001828103825260248152602001807f596f75206c61636b207065726d697373696f6e7320666f72207468697320616381526020017f74696f6e0000000000000000000000000000000000000000000000000000000081525060400191505060405180910390fd5b6001611af5816125da565b611b10600060030160019054906101000a900460ff1661260e565b901515611bb8576040517f08c379a00000000000000000000000000000000000000000000000000000000081526004018080602001828103825283818151815260200191508051906020019080838360005b83811015611b7d578082015181840152602081019050611b62565b50505050905090810190601f168015611baa5780820380516001836020036101000a031916815260200191505b509250505060405180910390fd5b50600460009054906101000a900473ffffffffffffffffffffffffffffffffffffffff1673ffffffffffffffffffffffffffffffffffffffff1663a221a14f6040518163ffffffff167c0100000000000000000000000000000000000000000000000000000000028152600401600060405180830381600087803b158015611c3f57600080fd5b505af1158015611c53573d6000803e3d6000fd5b50505050600560009054906101000a900473ffffffffffffffffffffffffffffffffffffffff1673ffffffffffffffffffffffffffffffffffffffff16ff5b6000806000600180811115611ca357fe5b826001811115611caf57fe5b14611cdc57600660009054906101000a900473ffffffffffffffffffffffffffffffffffffffff16611d00565b600560009054906101000a900473ffffffffffffffffffffffffffffffffffffffff165b90508073ffffffffffffffffffffffffffffffffffffffff163373ffffffffffffffffffffffffffffffffffffffff16141515611dcb576040517f08c379a00000000000000000000000000000000000000000000000000000000081526004018080602001828103825260248152602001807f596f75206c61636b207065726d697373696f6e7320666f72207468697320616381526020017f74696f6e0000000000000000000000000000000000000000000000000000000081525060400191505060405180910390fd5b6003611dd6816125da565b611df1600060030160019054906101000a900460ff1661260e565b901515611e99576040517f08c379a00000000000000000000000000000000000000000000000000000000081526004018080602001828103825283818151815260200191508051906020019080838360005b83811015611e5e578082015181840152602081019050611e43565b50505050905090810190601f168015611e8b5780820380516001836020036101000a031916815260200191505b509250505060405180910390fd5b50600760009054906101000a900473ffffffffffffffffffffffffffffffffffffffff1673ffffffffffffffffffffffffffffffffffffffff168573ffffffffffffffffffffffffffffffffffffffff161415611f10576001600760146101000a81548160ff021916908315150217905550611fa4565b6001600060030160019054906101000a900460ff166006811115611f3057fe5b036006811115611f3c57fe5b600060030160016101000a81548160ff02191690836006811115611f5c57fe5b02179055506000600760006101000a81548173ffffffffffffffffffffffffffffffffffffffff021916908373ffffffffffffffffffffffffffffffffffffffff1602179055505b600760149054906101000a900460ff169350611fbe6128f8565b505050919050565b60008060030160009054906101000a900460ff16908060030160019054906101000a900460ff16905082565b600460009054906101000a900473ffffffffffffffffffffffffffffffffffffffff1681565b6005612023816125da565b61203e600060030160019054906101000a900460ff1661260e565b9015156120e6576040517f08c379a00000000000000000000000000000000000000000000000000000000081526004018080602001828103825283818151815260200191508051906020019080838360005b838110156120ab578082015181840152602081019050612090565b50505050905090810190601f1680156120d85780820380516001836020036101000a031916815260200191505b509250505060405180910390fd5b50600560009054906101000a900473ffffffffffffffffffffffffffffffffffffffff1673ffffffffffffffffffffffffffffffffffffffff163373ffffffffffffffffffffffffffffffffffffffff16141561227857600560009054906101000a900473ffffffffffffffffffffffffffffffffffffffff1673ffffffffffffffffffffffffffffffffffffffff166108fc60006002016000600560009054906101000a900473ffffffffffffffffffffffffffffffffffffffff1673ffffffffffffffffffffffffffffffffffffffff1673ffffffffffffffffffffffffffffffffffffffff168152602001908152602001600020549081150290604051600060405180830381858888f19350505050158015612209573d6000803e3d6000fd5b506000806002016000600560009054906101000a900473ffffffffffffffffffffffffffffffffffffffff1673ffffffffffffffffffffffffffffffffffffffff1673ffffffffffffffffffffffffffffffffffffffff1681526020019081526020016000208190555061240f565b600660009054906101000a900473ffffffffffffffffffffffffffffffffffffffff1673ffffffffffffffffffffffffffffffffffffffff163373ffffffffffffffffffffffffffffffffffffffff16141561240957600660009054906101000a900473ffffffffffffffffffffffffffffffffffffffff1673ffffffffffffffffffffffffffffffffffffffff166108fc60006002016000600660009054906101000a900473ffffffffffffffffffffffffffffffffffffffff1673ffffffffffffffffffffffffffffffffffffffff1673ffffffffffffffffffffffffffffffffffffffff168152602001908152602001600020549081150290604051600060405180830381858888f1935050505015801561239a573d6000803e3d6000fd5b506000806002016000600660009054906101000a900473ffffffffffffffffffffffffffffffffffffffff1673ffffffffffffffffffffffffffffffffffffffff1673ffffffffffffffffffffffffffffffffffffffff1681526020019081526020016000208190555061240e565b6125c4565b5b6000806002016000600560009054906101000a900473ffffffffffffffffffffffffffffffffffffffff1673ffffffffffffffffffffffffffffffffffffffff1673ffffffffffffffffffffffffffffffffffffffff168152602001908152602001600020541480156124e557506000806002016000600660009054906101000a900473ffffffffffffffffffffffffffffffffffffffff1673ffffffffffffffffffffffffffffffffffffffff1673ffffffffffffffffffffffffffffffffffffffff16815260200190815260200160002054145b156125c357600460009054906101000a900473ffffffffffffffffffffffffffffffffffffffff1673ffffffffffffffffffffffffffffffffffffffff1663a221a14f6040518163ffffffff167c0100000000000000000000000000000000000000000000000000000000028152600401600060405180830381600087803b15801561257057600080fd5b505af1158015612584573d6000803e3d6000fd5b50505050600560009054906101000a900473ffffffffffffffffffffffffffffffffffffffff1673ffffffffffffffffffffffffffffffffffffffff16ff5b5b50565b600760149054906101000a900460ff1681565b60008160068111156125e857fe5b600060030160019054906101000a900460ff16600681111561260657fe5b149050919050565b60606000600681111561261d57fe5b82600681111561262957fe5b141561266c576040805190810160405280600c81526020017f496e697469616c5374616765000000000000000000000000000000000000000081525090506128f3565b6001600681111561267957fe5b82600681111561268557fe5b14156126c8576040805190810160405280600d81526020017f4e6f436f756e746572706172740000000000000000000000000000000000000081525090506128f3565b600260068111156126d557fe5b8260068111156126e157fe5b1415612724576040805190810160405280601881526020017f436f756e7465727061727420616c72656164792073657421000000000000000081525090506128f3565b6003600681111561273157fe5b82600681111561273d57fe5b1415612780576040805190810160405280600a81526020017f53657474696e674b65790000000000000000000000000000000000000000000081525090506128f3565b6004600681111561278d57fe5b82600681111561279957fe5b14156127dc576040805190810160405280601281526020017f5061796d656e744368616e6e656c4f70656e000000000000000000000000000081525090506128f3565b600560068111156127e957fe5b8260068111156127f557fe5b1415612838576040805190810160405280601d81526020017f46696e616c20737461746520776173206e6f742079657420676976656e00000081525090506128f3565b60068081111561284457fe5b82600681111561285057fe5b1415612893576040805190810160405280600881526020017f46696e697368656400000000000000000000000000000000000000000000000081525090506128f3565b606060405190810160405280603581526020017f4e6f2076616c6964206572726f72206d6573736167652077617320666f756e6481526020017f2e2054484953204953205645525920424144212121000000000000000000000081525090505b919050565b600060068081111561290657fe5b600060030160019054906101000a900460ff16600681111561292457fe5b1415151561299a576040517f08c379a000000000000000000000000000000000000000000000000000000000815260040180806020018281038252600c8152602001807f417373657274206661696c73000000000000000000000000000000000000000081525060200191505060405180910390fd5b6006808111156129a657fe5b600060030160019054906101000a900460ff1660068111156129c457fe5b141515156129ce57fe5b600060030160019054906101000a900460ff16905060018160068111156129f157fe5b0160068111156129fd57fe5b600060030160016101000a81548160ff02191690836006811115612a1d57fe5b0217905550600680811115612a2e57fe5b600060030160019054906101000a900460ff166006811115612a4c57fe5b14151515612ac2576040517f08c379a000000000000000000000000000000000000000000000000000000000815260040180806020018281038252600c8152602001807f417373657274206661696c73000000000000000000000000000000000000000081525060200191505060405180910390fd5b600680811115612ace57fe5b600060030160019054906101000a900460ff166006811115612aec57fe5b11151515612af657fe5b50565b600080600080846006811115612b0b57fe5b9250856006811115612b1957fe5b9150600060030160019054906101000a900460ff166006811115612b3957fe5b9050828111158015612b4b5750818110155b9350505050929150505600a165627a7a7230582087502626ded6cb508827a15a098fe31bb9e8e4832e2b08da399005a6dfa4eaf60029",
  "source": "pragma solidity ^0.4.17;//for keccak256 and security issues\n\n\n/**\n* A contract used to create Deposit contracts. This contract can be deployed\n* once and any user that wants to initiate a Deposit contract can access it.\n*/\ncontract DepositFactory {\n\n\t//Using mappings means we can't know simply how many contracts exist.\n\t//Also, there is no way to iterate over all contracts.\n\t//Creator => Contract because creator has to know somehow what is the address of hes contracts.\n\tmapping(address => address) public depositsCreators;\n\t//Contract => Creator to be able to destroy cotnracts.\n\tmapping(address => address[]) public deployedDeposits;\n\tuint feeValue = 1;\n\n\t/**\n\t* createDeposit\n\t* Generates a new Deposit Contract. A fee has to be send to this function,\n\t* to cover the cost of creating. Any sum above the fee will\n\t* be added to the Deposit.\n\t*/\n\tfunction createDeposit() public payable {\n\t\trequire(msg.value >= feeValue, \"Not enough money sent.\");\n\t\t//initialized to 0\n\t\tuint initialDeposit;\n\t\tif (msg.value > feeValue) initialDeposit = msg.value - feeValue;\n\t\taddress newDeposit = (new Deposit).value(initialDeposit)(msg.sender);\n\t\t(deployedDeposits[msg.sender]).push(newDeposit);\n\t\tdepositsCreators[newDeposit] = msg.sender;\n\t\t// Don't return anything since it's payable,\n\t\t// which does not go well with return values\n\t}\n\n\t//function getDeployedDeposits() public view returns (address[]) {\n\t\t//return deployedDepositsArray;\n\t//}\n\n\t/**\n\t* getDepositContract\n\t* Gets all the addresses of contracts created by 'creator'.\n\t* returns 0x000... if creator does not exist\n\t*/\n\tfunction getDepositContract(address creator) public view returns (address[]) {\n\t\treturn deployedDeposits[creator];\n\t}\n\n\t/**\n\t* getDepositContractCreator\n\t* Gets the address of the creator of 'depositContract'.\n\t* returns 0x000... if creator does not exist\n\t*/\n\tfunction getDepositContractCreator(address depositContract) public view returns (address) {\n\t\treturn depositsCreators[depositContract];\n\t}\n\n\t/**\n\t* removeDeposit\n\t* Removes all the contracts that were created by the user using this function.\n\t* TODO: change to remove specific contract in the future\n\t* TODO: This function requires more changes\n\t*/\n\tfunction removeDeposit() public {\n\t\t//Currently the remove causes all contracts of a creator to be removed (undesired behaviour)\n\t\tdelete deployedDeposits[(depositsCreators[msg.sender])];//Only relevant if sent by a contract, so need to restrict\n\t\tdelete depositsCreators[msg.sender];//Only relevant if sent by a contract, so need to restrict\n\t}\n}\n\n\n/**\n* A contract used for payment channel between two parties. Can be generated\n* using the DepositFactory contract.\n*/\ncontract Deposit {\n\n\tenum Party {\n\t\tCounterpart,\n\t\tInitiator\n\t}\n\n\t// An enum used to specify the stage of the contract.\n\tenum Stage {\n\t\tInitialStage,\n\t\tNoCounterpart,\n\t\tCounterpartSet,\n\t\tSettingKey,\n\t\tPaymentChannelOpen,\n\t\tPaymentChannelLocked,\n\t\tFinished\n\t}\n\n\t// A field of the contract that contains all the information about the\n\t// channel. This is the definition of the struct.\n\tstruct State {\n\t\tmapping(address => uint) initialBalance;\n\t\tmapping(address => uint) currentDeposit;\n\t\tmapping(address => uint) finalBalance;\n\t\tbool finalBalanceSet;\n\t\tStage stage;\n\t}\n\n\tState public state;\n\n\t//Saves the factory address for self termination state.\n\tDepositFactory public factory;\n\taddress public initiator;\n\taddress public counterpart;\n\n\taddress public SgxAddress;\n\n\tbool public isKeySet = false;\n\n\t/**\n\t* constructor\n\t* Called by a DepositFactory and sets all the fields for the new Deposit\n\t* contract. An amount of ether can be passed to the account and it will be\n\t* treated as if it was ether that the initiator passed to the contract.\n\t*/\n\tconstructor(address creator) public payable transitionNext {\n\t\tfactory = DepositFactory(msg.sender);\n\t\tinitiator = creator;\n\t\tState memory newState = State({\n\t\t\tfinalBalanceSet: false,\n\t\t\tstage: Stage.InitialStage\n\t\t});\n\t\tstate = newState;\n\t\tuint initialDeposit = 0;\n\t\tif (msg.value > 0) {\n\t\t\tinitialDeposit = msg.value;\n\t\t}\n\t\tstate.initialBalance[initiator] = initialDeposit;\n\t\tstate.currentDeposit[initiator] = initialDeposit;\n\t\tstate.finalBalance[initiator] = 0;\n\t}\n\n\t/**\n\t * addDeposit\n\t * Adds ethereum to the relevant account (the one that called this function).\n\t * Calling is allowed at all stages, but irrelevant from Locked stage.\n\t */\n\tfunction addDeposit() public payable restricted {\n\t\trequire(msg.value > 0, \"Pay more than 0 please.\");\n\t\tif (msg.sender == initiator) {\t//the initiator adds money\n\t\t\tstate.currentDeposit[initiator] += (msg.value);\n\t\t} else if (betweenStages(Stage.CounterpartSet, Stage.PaymentChannelOpen)) {\n      //counterpart adds money\n\t\t\tstate.currentDeposit[counterpart] += (msg.value);\n\t\t}\n\t}\n\n\t// Modifier - Allows both initiator and counterpart\n\tmodifier restricted() {\n\t\trequire(msg.sender == counterpart || msg.sender == initiator,\n\t\t\t\"Only this channel's parties have permission for this action\");\n\t\t_;\n\t}\n\n\t// Modifier - Allows only one of the parties to use a function, according to\n\t// what is sets by us in that function.\n\tmodifier restrictedAccess(Party party) {\n\t\taddress adr = (party == Party.Initiator) ? initiator : counterpart;\n\t\trequire(msg.sender == adr, \"You lack permissions for this action\");\n\t\t_;\n\t}\n\n\t/* TODO: Amit - Need explanation here */\n\t//modifier isSigned(uint[2] Totals, uint8 v, bytes32 r, bytes32 s)\n\tmodifier isSigned(uint[2] Totals, bytes32 TotalsBytes, uint8 v, bytes32 r, bytes32 s)\n\t{\n\t\trequire(sha3(Totals) == TotalsBytes, \"Sha3 of totals does not match given Sha3\");\n\t\tbytes memory prefix = \"\\x19Ethereum Signed Message:\\n32\";\n\t\tbytes32 msgHash = keccak256(abi.encodePacked(prefix, TotalsBytes));\n\t\trequire(ecrecover(msgHash, v, r, s) == SgxAddress, \"Verify signature failed\");\n\t\t_;\n\t}\n\n\t/**\n\t * nextStage\n\t * Moves the contract to the next stage, if possible and allowrd.\n\t * TODO: Amit - many mixed assertions and requirements. This function needs a\n\t * a bit re-factoring\n\t */\n\tfunction nextStage() internal {\n\t\t/* TODO: Amit - why both of them? */\n\t\trequire(state.stage != Stage.Finished, \"Assert fails\");\n\t\tassert(state.stage != Stage.Finished);\n\t\tStage _stage = state.stage;\n\t\tstate.stage = Stage(uint(_stage) + 1);\n\t\trequire(state.stage != Stage.Finished, \"Assert fails\");\n\t\tassert(uint(state.stage) <= uint(Stage.Finished));\n\t}\n\n\t/**\n\t * getErrorMsgAccordingToStage\n\t * Returns a string describing the current stage of the account.\n\t */\n\tfunction getErrorMsgAccordingToStage(Stage _stage) internal pure returns (string) {\n\t\tif (_stage == Stage.InitialStage) {\n\t\t\treturn \"InitialStage\";\n\t\t} else if (_stage == Stage.NoCounterpart) {\n\t\t\treturn \"NoCounterpart\";\n\t\t} else if (_stage == Stage.CounterpartSet) {\n\t\t\treturn \"Counterpart already set!\";\n\t\t} else if (_stage == Stage.SettingKey) {\n\t\t\treturn \"SettingKey\";\n\t\t} else if (_stage == Stage.PaymentChannelOpen) {\n\t\t\treturn \"PaymentChannelOpen\";\n\t\t} else if (_stage == Stage.PaymentChannelLocked) {\n\t\t\treturn \"Final state was not yet given\";\n\t\t} else if (_stage == Stage.Finished) {\n\t\t\treturn \"Finished\";\n\t\t} else {\n\t\t\treturn \"No valid error message was found. THIS IS VERY BAD!!!\";\n\t\t}\n\t}\n\n\t// Modifier - Makes sure we are in the stage we assume\n\tmodifier verifyAtStage(Stage _stage) {\n\t\trequire(atStage(_stage), getErrorMsgAccordingToStage(state.stage));\n\t\t_;\n\t}\n\n\t/* TODO: Amit - what is this modifier for?. Can we make it prettier?*/\n\t// Modifier - Not used for modifying, but more to change the stage into the\n\t// the next one\n\tmodifier transitionNext() {\n\t\t_;\n\t\tnextStage();\n\t}\n\n\t/**\n\t * viewCurrentDeposit\n\t * Returns a value corresponding to the party's current deposit.\n\t */\n\tfunction viewCurrentDeposit(address party) public view restricted returns (uint) {\n\t\treturn state.currentDeposit[party];\n\t}\n\n\t/**\n\t * viewCurrentDeposit\n\t * Returns a value corresponding to the parties current deposits.\n\t * array[0] is the deposit of the initiator and array[1] is deposit of the\n\t * counterpart.\n\t */\n\tfunction viewCurrentDeposit() public view restricted returns (uint[]) {\n\t\tuint[] memory balance = new uint[](2);\n\t\tbalance[0] = state.currentDeposit[initiator];\n\t\tbalance[1] = state.currentDeposit[counterpart];\n\t\treturn balance;\n\t}\n\n\t/**\n\t * setCounterpart\n\t * Allows (only!) the initator to set the counterpart for the channel.\n\t * After this call the contract moves to the next stage - CounterpartSet.\n\t */\n\tfunction setCounterpart(address adr) public restrictedAccess(Party.Initiator)\n\t\tverifyAtStage(Stage.NoCounterpart) transitionNext {\n\t\trequire(adr != initiator, \"Party is already the initiator\");\n\t\tcounterpart = adr;\n\t\tstate.initialBalance[counterpart] = 0;\n\t\tstate.currentDeposit[counterpart] = 0;\n\t\tstate.finalBalance[counterpart] = 0;\n\t}\n\n\t/**\n\t * setPublicKey\n\t * Allows (only!) the initator to set the address (agreed by both parties'\n\t * SGXs).\n\t * After this call the contract moves to the next stage - SettingKey.\n\t */\n\tfunction setPublicKey(address _sgx) public restrictedAccess(Party.Initiator)\n\t\tverifyAtStage(Stage.CounterpartSet) transitionNext\n\t{\n\t\tSgxAddress = _sgx;\n\t}\n\n\t/**\n\t * atStage\n\t * Returns true if the current contract's stage is '_stge' and false otherwise\n\t */\n\tfunction atStage(Stage _stage) internal view returns (bool) {\n\t\treturn (state.stage == _stage);\n\t}\n\n\t/**\n\t * beforeStage\n\t * TODO: Amit - add documentation, consider removing\n\t */\n\t/*function beforeStage(Stage endStage) internal view returns (bool) {\n\t\trequire(state.stage != Stage.Finished, \"Assert fails\");\n\t\tassert(endStage != Stage.Finished);\n\t\tStage newEndStage = Stage(uint(endStage) + 1);\n\t\treturn betweenStages(Stage.InitialStage, newEndStage);\n\t}*/\n\n\t/**\n\t * betweenStages\n\t * TODO: Amit - add documentation, consider removing\n\t */\n\tfunction betweenStages(Stage beginStage, Stage endStage)\n\t\tinternal\n\t\tview\n\t\treturns (bool)\n\t{\n\t\tuint endStageInt = uint(endStage);\n\t\tuint beginStageInt = uint(beginStage);\n\t\tuint stage = uint(state.stage);\n\t\treturn ((stage <= endStageInt) && (stage >= beginStageInt));\n\t}\n\n\t/**\n\t * cancelDepositContract\n\t * Allows (only!) the initator to cancel the contract. This action is allowed\n\t * only if the contract is in the initial stage.\n\t */\n\tfunction cancelDepositContract() public restrictedAccess(Party.Initiator)\n\t\tverifyAtStage(Stage.NoCounterpart)\t{\n\t\t//Reset session before it began\n\t\tfactory.removeDeposit();\n\t\tselfdestruct(initiator);\n\t}\n\n\t/**\n\t * drawMyBalance\n\t * Allows the initiator and counterpart to draw their balance and by that\n   * terminating the channel.\n   * This action is allowed only if the contract is in the correct stage.\n\t */\n\tfunction drawMyBalance() public payable\n\t\tverifyAtStage(Stage.PaymentChannelLocked) {\n\t\t//After payment channel is active:\n\t\tif (msg.sender == initiator) {\n\t\t\tinitiator.transfer(state.finalBalance[initiator]);\n\t\t\tstate.finalBalance[initiator] = 0;\n\t\t} else if (msg.sender == counterpart) {\n\t\t\tcounterpart.transfer(state.finalBalance[counterpart]);\n\t\t\tstate.finalBalance[counterpart] = 0;\n\t\t} else {\n\t\t\treturn;//Do not continue to next step.\n\t\t}\n\t\t//If both sides drawed, reset contract\n\t\tif (state.finalBalance[initiator] == 0\n\t\t    && state.finalBalance[counterpart] == 0)\n\t\t{\n\t\t\tfactory.removeDeposit();\n\t\t\tselfdestruct(initiator);//initiator gets leftovers\n\t\t}\n\t}\n\n\t/**\n\t * lockPublicSharedKey\n\t * Allows (only!) the counterpart to lock the key, if the stage is correct\n\t * and if the address he supplied as the SGX's address matches the one supplied\n\t * earlier by the initiator. Return value indicates if the lock succeeded.\n\t * After a successful call the contract moves to the next stage - PaymentChannelOpen.\n\t */\n\tfunction lockPublicSharedKey(address _sgx) public restrictedAccess(Party.Counterpart)\n\t\tverifyAtStage(Stage.SettingKey) transitionNext returns (bool){\n\t\tif (_sgx == SgxAddress) {\n\t\t\tisKeySet = true;\n\t\t} else {\n\t\t\tstate.stage = Stage(uint(state.stage) - 1);//revert stage\n\t\t\tSgxAddress = 0;\n\t\t}\n\t\treturn isKeySet;\n\t}\n\n\t/* TODO: Amit - add documentation */\n\t//function setFinalState(uint[2] Totals, uint8 v, bytes32 r, bytes32 s)\n\tfunction setFinalState(uint[2] Totals, bytes32 TotalsBytes, uint8 v, bytes32 r, bytes32 s)\n\t\tpublic\n\t\trestricted\n\t\tverifyAtStage(Stage.PaymentChannelOpen)\n\t\tisSigned(Totals, TotalsBytes, v, r, s)\n\t\t//isSigned(Totals, v, r, s)\n\t\ttransitionNext\n\t{\n\t\tstate.finalBalance[initiator] = uint(Totals[0]);\n\t\tstate.finalBalance[counterpart] = uint(Totals[1]);\n\t}\n}\n",
  "sourcePath": "/home/projecta/EthereumProject/truffleProject/truffleReact/truffleBox/contracts/Deposit.sol",
  "compiler": {
    "name": "solc",
    "version": "0.4.24+commit.e67f0147.Emscripten.clang"
  },
  "schemaVersion": "2.0.1",
  "updatedAt": "2018-10-07T10:38:08.532Z"
}